{
  "_format": "hh-sol-artifact-1",
  "contractName": "L1Contract",
  "sourceName": "contracts/L1Contract.sol",
  "abi": [
    {
      "inputs": [
        {
          "internalType": "address",
          "name": "_l1Bridge",
          "type": "address"
        }
      ],
      "stateMutability": "nonpayable",
      "type": "constructor"
    },
    {
      "inputs": [
        {
          "internalType": "address",
          "name": "_to",
          "type": "address"
        },
        {
          "internalType": "bytes",
          "name": "_calldata",
          "type": "bytes"
        }
      ],
      "name": "sendMessageToL2",
      "outputs": [],
      "stateMutability": "payable",
      "type": "function"
    }
  ],
  "bytecode": "0x608060405234801561001057600080fd5b5060405161053b38038061053b8339818101604052810190610032919061008d565b806000806101000a81548173ffffffffffffffffffffffffffffffffffffffff021916908373ffffffffffffffffffffffffffffffffffffffff160217905550506100ff565b600081519050610087816100e8565b92915050565b60006020828403121561009f57600080fd5b60006100ad84828501610078565b91505092915050565b60006100c1826100c8565b9050919050565b600073ffffffffffffffffffffffffffffffffffffffff82169050919050565b6100f1816100b6565b81146100fc57600080fd5b50565b61042d8061010e6000396000f3fe60806040526004361061001e5760003560e01c80634298b4c014610023575b600080fd5b61003d60048036038101906100389190610167565b61003f565b005b60008060009054906101000a900473ffffffffffffffffffffffffffffffffffffffff1690506000600190506000600190508273ffffffffffffffffffffffffffffffffffffffff1663240ff37834848885896040518663ffffffff1660e01b81526004016100b19493929190610221565b6000604051808303818588803b1580156100ca57600080fd5b505af11580156100de573d6000803e3d6000fd5b50505050505050505050565b60006100fd6100f884610292565b61026d565b90508281526020810184848401111561011557600080fd5b61012084828561032d565b509392505050565b600081359050610137816103e0565b92915050565b600082601f83011261014e57600080fd5b813561015e8482602086016100ea565b91505092915050565b6000806040838503121561017a57600080fd5b600061018885828601610128565b925050602083013567ffffffffffffffff8111156101a557600080fd5b6101b18582860161013d565b9150509250929050565b6101c4816102df565b82525050565b6101d3816102f1565b82525050565b60006101e4826102c3565b6101ee81856102ce565b93506101fe81856020860161033c565b610207816103cf565b840191505092915050565b61021b8161031d565b82525050565b60006080820190506102366000830187610212565b61024360208301866101bb565b61025060408301856101ca565b818103606083015261026281846101d9565b905095945050505050565b6000610277610288565b9050610283828261036f565b919050565b6000604051905090565b600067ffffffffffffffff8211156102ad576102ac6103a0565b5b6102b6826103cf565b9050602081019050919050565b600081519050919050565b600082825260208201905092915050565b60006102ea826102fd565b9050919050565b60008115159050919050565b600073ffffffffffffffffffffffffffffffffffffffff82169050919050565b600063ffffffff82169050919050565b82818337600083830152505050565b60005b8381101561035a57808201518184015260208101905061033f565b83811115610369576000848401525b50505050565b610378826103cf565b810181811067ffffffffffffffff82111715610397576103966103a0565b5b80604052505050565b7f4e487b7100000000000000000000000000000000000000000000000000000000600052604160045260246000fd5b6000601f19601f8301169050919050565b6103e9816102df565b81146103f457600080fd5b5056fea2646970667358221220748b9330200d5d683a48e609f991373df205e9631320c2f8bcc67df959fa99db64736f6c63430008040033",
  "linkReferences": {},
  "deployedLinkReferences": {}
}